{"abi":[{"type":"function","name":"addClaimTopic","inputs":[{"name":"_claimTopic","type":"uint256","internalType":"uint256"}],"outputs":[],"stateMutability":"nonpayable"},{"type":"function","name":"getClaimTopics","inputs":[],"outputs":[{"name":"","type":"uint256[]","internalType":"uint256[]"}],"stateMutability":"view"},{"type":"function","name":"init","inputs":[],"outputs":[],"stateMutability":"nonpayable"},{"type":"function","name":"owner","inputs":[],"outputs":[{"name":"","type":"address","internalType":"address"}],"stateMutability":"view"},{"type":"function","name":"removeClaimTopic","inputs":[{"name":"_claimTopic","type":"uint256","internalType":"uint256"}],"outputs":[],"stateMutability":"nonpayable"},{"type":"function","name":"renounceOwnership","inputs":[],"outputs":[],"stateMutability":"nonpayable"},{"type":"function","name":"transferOwnership","inputs":[{"name":"newOwner","type":"address","internalType":"address"}],"outputs":[],"stateMutability":"nonpayable"},{"type":"event","name":"ClaimTopicAdded","inputs":[{"name":"claimTopic","type":"uint256","indexed":true,"internalType":"uint256"}],"anonymous":false},{"type":"event","name":"ClaimTopicRemoved","inputs":[{"name":"claimTopic","type":"uint256","indexed":true,"internalType":"uint256"}],"anonymous":false},{"type":"event","name":"Initialized","inputs":[{"name":"version","type":"uint8","indexed":false,"internalType":"uint8"}],"anonymous":false},{"type":"event","name":"OwnershipTransferred","inputs":[{"name":"previousOwner","type":"address","indexed":true,"internalType":"address"},{"name":"newOwner","type":"address","indexed":true,"internalType":"address"}],"anonymous":false}],"bytecode":{"object":"0x608060405234801561001057600080fd5b506107c3806100206000396000f3fe608060405234801561001057600080fd5b506004361061007d5760003560e01c8063c7b225511161005b578063c7b22551146100bf578063df09d604146100d2578063e1c7392a146100e7578063f2fde38b146100ef57600080fd5b80630829784614610082578063715018a6146100975780638da5cb5b1461009f575b600080fd5b610095610090366004610641565b610102565b005b6100956101f3565b6033546040516001600160a01b0390911681526020015b60405180910390f35b6100956100cd366004610641565b610207565b6100da61035c565b6040516100b6919061065a565b6100956103b4565b6100956100fd36600461069e565b6104c5565b61010a61053b565b60655460005b818110156101ee57826065828154811061012c5761012c6106ce565b9060005260206000200154036101dc5760656101496001846106fa565b81548110610159576101596106ce565b906000526020600020015460658281548110610177576101776106ce565b600091825260209091200155606580548061019457610194610713565b60019003818190600052602060002001600090559055827f0b1381093c776453c1bbe54fd68be1b235c65db61d099cb50d194b2991e0eec560405160405180910390a2505050565b806101e681610729565b915050610110565b505050565b6101fb61053b565b6102056000610595565b565b61020f61053b565b606554600f81106102725760405162461bcd60e51b815260206004820152602260248201527f63616e6e6f742072657175697265206d6f7265207468616e20313520746f7069604482015261637360f01b60648201526084015b60405180910390fd5b60005b818110156102fb578260658281548110610291576102916106ce565b9060005260206000200154036102e95760405162461bcd60e51b815260206004820152601960248201527f636c61696d546f70696320616c726561647920657869737473000000000000006044820152606401610269565b806102f381610729565b915050610275565b506065805460018101825560009182527f8ff97419363ffd7000167f130ef7168fbea05faf9251824ca5043f113cc6a7c70183905560405183917f01c928b7f7ade2949e92366aa9454dbef3a416b731cf6ec786ba9595bbd814d691a25050565b606060658054806020026020016040519081016040528092919081815260200182805480156103aa57602002820191906000526020600020905b815481526020019060010190808311610396575b5050505050905090565b600054610100900460ff16158080156103d45750600054600160ff909116105b806103ee5750303b1580156103ee575060005460ff166001145b6104515760405162461bcd60e51b815260206004820152602e60248201527f496e697469616c697a61626c653a20636f6e747261637420697320616c72656160448201526d191e481a5b9a5d1a585b1a5e995960921b6064820152608401610269565b6000805460ff191660011790558015610474576000805461ff0019166101001790555b61047c6105e7565b80156104c2576000805461ff0019169055604051600181527f7f26b83ff96e1f2b6a682f133852f6798a09c465da95921460cefb38474024989060200160405180910390a15b50565b6104cd61053b565b6001600160a01b0381166105325760405162461bcd60e51b815260206004820152602660248201527f4f776e61626c653a206e6577206f776e657220697320746865207a65726f206160448201526564647265737360d01b6064820152608401610269565b6104c281610595565b6033546001600160a01b031633146102055760405162461bcd60e51b815260206004820181905260248201527f4f776e61626c653a2063616c6c6572206973206e6f7420746865206f776e65726044820152606401610269565b603380546001600160a01b038381166001600160a01b0319831681179093556040519116919082907f8be0079c531659141344cd1fd0a4f28419497f9722a3daafe3b4186f6b6457e090600090a35050565b600054610100900460ff1661060e5760405162461bcd60e51b815260040161026990610742565b610205600054610100900460ff166106385760405162461bcd60e51b815260040161026990610742565b61020533610595565b60006020828403121561065357600080fd5b5035919050565b6020808252825182820181905260009190848201906040850190845b8181101561069257835183529284019291840191600101610676565b50909695505050505050565b6000602082840312156106b057600080fd5b81356001600160a01b03811681146106c757600080fd5b9392505050565b634e487b7160e01b600052603260045260246000fd5b634e487b7160e01b600052601160045260246000fd5b8181038181111561070d5761070d6106e4565b92915050565b634e487b7160e01b600052603160045260246000fd5b60006001820161073b5761073b6106e4565b5060010190565b6020808252602b908201527f496e697469616c697a61626c653a20636f6e7472616374206973206e6f74206960408201526a6e697469616c697a696e6760a81b60608201526080019056fea264697066735822122028b98ff9199f3fc3be80378735f8d8a2b9e3844873940ab053996dcf8e9cf66f64736f6c63430008110033","linkReferences":{}},"methodIdentifiers":{"addClaimTopic(uint256)":"c7b22551","getClaimTopics()":"df09d604","init()":"e1c7392a","owner()":"8da5cb5b","removeClaimTopic(uint256)":"08297846","renounceOwnership()":"715018a6","transferOwnership(address)":"f2fde38b"},"id":58}