{"abi":[{"type":"function","name":"allowUser","inputs":[{"name":"_userAddress","type":"address","internalType":"address"}],"outputs":[],"stateMutability":"nonpayable"},{"type":"function","name":"batchAllowUsers","inputs":[{"name":"_userAddresses","type":"address[]","internalType":"address[]"}],"outputs":[],"stateMutability":"nonpayable"},{"type":"function","name":"batchDisallowUsers","inputs":[{"name":"_userAddresses","type":"address[]","internalType":"address[]"}],"outputs":[],"stateMutability":"nonpayable"},{"type":"function","name":"bindCompliance","inputs":[{"name":"_compliance","type":"address","internalType":"address"}],"outputs":[],"stateMutability":"nonpayable"},{"type":"function","name":"canComplianceBind","inputs":[{"name":"","type":"address","internalType":"address"}],"outputs":[{"name":"","type":"bool","internalType":"bool"}],"stateMutability":"view"},{"type":"function","name":"disallowUser","inputs":[{"name":"_userAddress","type":"address","internalType":"address"}],"outputs":[],"stateMutability":"nonpayable"},{"type":"function","name":"isComplianceBound","inputs":[{"name":"_compliance","type":"address","internalType":"address"}],"outputs":[{"name":"","type":"bool","internalType":"bool"}],"stateMutability":"view"},{"type":"function","name":"isPlugAndPlay","inputs":[],"outputs":[{"name":"","type":"bool","internalType":"bool"}],"stateMutability":"pure"},{"type":"function","name":"isUserAllowed","inputs":[{"name":"_compliance","type":"address","internalType":"address"},{"name":"_userAddress","type":"address","internalType":"address"}],"outputs":[{"name":"","type":"bool","internalType":"bool"}],"stateMutability":"view"},{"type":"function","name":"moduleBurnAction","inputs":[{"name":"_from","type":"address","internalType":"address"},{"name":"_value","type":"uint256","internalType":"uint256"}],"outputs":[],"stateMutability":"nonpayable"},{"type":"function","name":"moduleCheck","inputs":[{"name":"_from","type":"address","internalType":"address"},{"name":"_to","type":"address","internalType":"address"},{"name":"","type":"uint256","internalType":"uint256"},{"name":"_compliance","type":"address","internalType":"address"}],"outputs":[{"name":"","type":"bool","internalType":"bool"}],"stateMutability":"view"},{"type":"function","name":"moduleMintAction","inputs":[{"name":"_to","type":"address","internalType":"address"},{"name":"_value","type":"uint256","internalType":"uint256"}],"outputs":[],"stateMutability":"nonpayable"},{"type":"function","name":"moduleTransferAction","inputs":[{"name":"_from","type":"address","internalType":"address"},{"name":"_to","type":"address","internalType":"address"},{"name":"_value","type":"uint256","internalType":"uint256"}],"outputs":[],"stateMutability":"nonpayable"},{"type":"function","name":"name","inputs":[],"outputs":[{"name":"_name","type":"string","internalType":"string"}],"stateMutability":"pure"},{"type":"function","name":"unbindCompliance","inputs":[{"name":"_compliance","type":"address","internalType":"address"}],"outputs":[],"stateMutability":"nonpayable"},{"type":"event","name":"ComplianceBound","inputs":[{"name":"_compliance","type":"address","indexed":true,"internalType":"address"}],"anonymous":false},{"type":"event","name":"ComplianceUnbound","inputs":[{"name":"_compliance","type":"address","indexed":true,"internalType":"address"}],"anonymous":false},{"type":"event","name":"UserAllowed","inputs":[{"name":"_compliance","type":"address","indexed":false,"internalType":"address"},{"name":"_userAddress","type":"address","indexed":false,"internalType":"address"}],"anonymous":false},{"type":"event","name":"UserDisallowed","inputs":[{"name":"_compliance","type":"address","indexed":false,"internalType":"address"},{"name":"_userAddress","type":"address","indexed":false,"internalType":"address"}],"anonymous":false}],"bytecode":{"object":"0x608060405234801561001057600080fd5b50610b86806100206000396000f3fe608060405234801561001057600080fd5b50600436106100f55760003560e01c80634cf4d29511610097578063a9fb3b3511610066578063a9fb3b3514610220578063bcc210531461025c578063e6f5e80714610270578063f104a8c91461019557600080fd5b80634cf4d295146101bb57806358591fb7146101e7578063726bb465146101fa578063771c456f1461020d57600080fd5b80632cb7e1ec116100d35780632cb7e1ec1461016f57806332bb1f1614610182578063372491a2146101955780634a932544146101a857600080fd5b8063013b7ce4146100fa5780630694a5fb1461012257806306fdde0314610137575b600080fd5b61010d61010836600461086a565b610277565b60405190151581526020015b60405180910390f35b6101356101303660046108b7565b6102e2565b005b60408051808201825260168152755472616e7366657252657374726963744d6f64756c6560501b6020820152905161011991906108d9565b61013561017d366004610927565b6103e1565b610135610190366004610979565b610415565b6101356101a3366004610a3e565b6104e6565b6101356101b63660046108b7565b610519565b61010d6101c93660046108b7565b6001600160a01b031660009081526020819052604090205460ff1690565b6101356101f53660046108b7565b61064c565b610135610208366004610979565b6106e4565b61013561021b3660046108b7565b6107ba565b61010d61022e366004610a68565b6001600160a01b03918216600090815260016020908152604080832093909416825291909152205460ff1690565b61010d61026a3660046108b7565b50600190565b600161010d565b6001600160a01b03808216600090815260016020908152604080832093881683529290529081205460ff16156102af575060016102da565b506001600160a01b0380821660009081526001602090815260408083209387168352929052205460ff165b949350505050565b3360009081526020819052604090205460ff1661031a5760405162461bcd60e51b815260040161031190610a9b565b60405180910390fd5b6001600160a01b0381166103705760405162461bcd60e51b815260206004820152601f60248201527f696e76616c696420617267756d656e74202d207a65726f2061646472657373006044820152606401610311565b336001600160a01b038216146103985760405162461bcd60e51b815260040161031190610ad2565b6001600160a01b038116600081815260208190526040808220805460ff19169055517f408b49d9be1c914c52a0227e18a077e5a892dddf32a26cfa94a5d9708fad77189190a250565b3360009081526020819052604090205460ff166104105760405162461bcd60e51b815260040161031190610a9b565b505050565b3360009081526020819052604090205460ff166104445760405162461bcd60e51b815260040161031190610a9b565b805160005b8181101561041057600083828151811061046557610465610b13565b6020908102919091018101513360008181526001845260408082206001600160a01b03851680845290865291819020805460ff191690558051928352938201529092507fe9ab2574b9b111f06f42baaa274030c7228b1dad45b248037101cd11de348240910160405180910390a150806104de81610b29565b915050610449565b3360009081526020819052604090205460ff166105155760405162461bcd60e51b815260040161031190610a9b565b5050565b6001600160a01b03811661056f5760405162461bcd60e51b815260206004820152601f60248201527f696e76616c696420617267756d656e74202d207a65726f2061646472657373006044820152606401610311565b6001600160a01b03811660009081526020819052604090205460ff16156105d85760405162461bcd60e51b815260206004820152601860248201527f636f6d706c69616e636520616c726561647920626f756e6400000000000000006044820152606401610311565b336001600160a01b038216146106005760405162461bcd60e51b815260040161031190610ad2565b6001600160a01b038116600081815260208190526040808220805460ff19166001179055517f1f7b76c58fb697eb53c6c7c1becb96911516a136e24d7ced386b2355358b75a39190a250565b3360009081526020819052604090205460ff1661067b5760405162461bcd60e51b815260040161031190610a9b565b3360008181526001602090815260408083206001600160a01b03861680855290835292819020805460ff191690558051938452908301919091527fe9ab2574b9b111f06f42baaa274030c7228b1dad45b248037101cd11de34824091015b60405180910390a150565b3360009081526020819052604090205460ff166107135760405162461bcd60e51b815260040161031190610a9b565b805160005b8181101561041057600083828151811061073457610734610b13565b602090810291909101810151336000818152600180855260408083206001600160a01b03861680855290875292819020805460ff19169092179091558051928352938201529092507f767240d3c58c1058ed268ca225eb1cc93d85cf46b6e85d8d120b39921475b1c1910160405180910390a150806107b281610b29565b915050610718565b3360009081526020819052604090205460ff166107e95760405162461bcd60e51b815260040161031190610a9b565b3360008181526001602081815260408084206001600160a01b03871680865290835293819020805460ff191690931790925581519384528301919091527f767240d3c58c1058ed268ca225eb1cc93d85cf46b6e85d8d120b39921475b1c191016106d9565b80356001600160a01b038116811461086557600080fd5b919050565b6000806000806080858703121561088057600080fd5b6108898561084e565b93506108976020860161084e565b9250604085013591506108ac6060860161084e565b905092959194509250565b6000602082840312156108c957600080fd5b6108d28261084e565b9392505050565b600060208083528351808285015260005b81811015610906578581018301518582016040015282016108ea565b506000604082860101526040601f19601f8301168501019250505092915050565b60008060006060848603121561093c57600080fd5b6109458461084e565b92506109536020850161084e565b9150604084013590509250925092565b634e487b7160e01b600052604160045260246000fd5b6000602080838503121561098c57600080fd5b823567ffffffffffffffff808211156109a457600080fd5b818501915085601f8301126109b857600080fd5b8135818111156109ca576109ca610963565b8060051b604051601f19603f830116810181811085821117156109ef576109ef610963565b604052918252848201925083810185019188831115610a0d57600080fd5b938501935b82851015610a3257610a238561084e565b84529385019392850192610a12565b98975050505050505050565b60008060408385031215610a5157600080fd5b610a5a8361084e565b946020939093013593505050565b60008060408385031215610a7b57600080fd5b610a848361084e565b9150610a926020840161084e565b90509250929050565b6020808252601e908201527f6f6e6c7920626f756e6420636f6d706c69616e63652063616e2063616c6c0000604082015260600190565b60208082526021908201527f6f6e6c7920636f6d706c69616e636520636f6e74726163742063616e2063616c6040820152601b60fa1b606082015260800190565b634e487b7160e01b600052603260045260246000fd5b600060018201610b4957634e487b7160e01b600052601160045260246000fd5b506001019056fea2646970667358221220cc69435e97f357e375227bdbe5c0d4ab37e5d5ddcb93394f7cc4fc0e98eb283b64736f6c63430008110033","linkReferences":{}},"methodIdentifiers":{"allowUser(address)":"771c456f","batchAllowUsers(address[])":"726bb465","batchDisallowUsers(address[])":"32bb1f16","bindCompliance(address)":"4a932544","canComplianceBind(address)":"bcc21053","disallowUser(address)":"58591fb7","isComplianceBound(address)":"4cf4d295","isPlugAndPlay()":"e6f5e807","isUserAllowed(address,address)":"a9fb3b35","moduleBurnAction(address,uint256)":"372491a2","moduleCheck(address,address,uint256,address)":"013b7ce4","moduleMintAction(address,uint256)":"f104a8c9","moduleTransferAction(address,address,uint256)":"2cb7e1ec","name()":"06fdde03","unbindCompliance(address)":"0694a5fb"},"id":41}