{"abi":[{"type":"function","name":"bindCompliance","inputs":[{"name":"_compliance","type":"address","internalType":"address"}],"outputs":[],"stateMutability":"nonpayable"},{"type":"function","name":"canComplianceBind","inputs":[{"name":"","type":"address","internalType":"address"}],"outputs":[{"name":"","type":"bool","internalType":"bool"}],"stateMutability":"view"},{"type":"function","name":"getSupplyLimit","inputs":[{"name":"_compliance","type":"address","internalType":"address"}],"outputs":[{"name":"","type":"uint256","internalType":"uint256"}],"stateMutability":"view"},{"type":"function","name":"isComplianceBound","inputs":[{"name":"_compliance","type":"address","internalType":"address"}],"outputs":[{"name":"","type":"bool","internalType":"bool"}],"stateMutability":"view"},{"type":"function","name":"isPlugAndPlay","inputs":[],"outputs":[{"name":"","type":"bool","internalType":"bool"}],"stateMutability":"pure"},{"type":"function","name":"moduleBurnAction","inputs":[{"name":"_from","type":"address","internalType":"address"},{"name":"_value","type":"uint256","internalType":"uint256"}],"outputs":[],"stateMutability":"nonpayable"},{"type":"function","name":"moduleCheck","inputs":[{"name":"_from","type":"address","internalType":"address"},{"name":"","type":"address","internalType":"address"},{"name":"_value","type":"uint256","internalType":"uint256"},{"name":"_compliance","type":"address","internalType":"address"}],"outputs":[{"name":"","type":"bool","internalType":"bool"}],"stateMutability":"view"},{"type":"function","name":"moduleMintAction","inputs":[{"name":"_to","type":"address","internalType":"address"},{"name":"_value","type":"uint256","internalType":"uint256"}],"outputs":[],"stateMutability":"nonpayable"},{"type":"function","name":"moduleTransferAction","inputs":[{"name":"_from","type":"address","internalType":"address"},{"name":"_to","type":"address","internalType":"address"},{"name":"_value","type":"uint256","internalType":"uint256"}],"outputs":[],"stateMutability":"nonpayable"},{"type":"function","name":"name","inputs":[],"outputs":[{"name":"_name","type":"string","internalType":"string"}],"stateMutability":"pure"},{"type":"function","name":"setSupplyLimit","inputs":[{"name":"_limit","type":"uint256","internalType":"uint256"}],"outputs":[],"stateMutability":"nonpayable"},{"type":"function","name":"unbindCompliance","inputs":[{"name":"_compliance","type":"address","internalType":"address"}],"outputs":[],"stateMutability":"nonpayable"},{"type":"event","name":"ComplianceBound","inputs":[{"name":"_compliance","type":"address","indexed":true,"internalType":"address"}],"anonymous":false},{"type":"event","name":"ComplianceUnbound","inputs":[{"name":"_compliance","type":"address","indexed":true,"internalType":"address"}],"anonymous":false},{"type":"event","name":"SupplyLimitSet","inputs":[{"name":"_compliance","type":"address","indexed":false,"internalType":"address"},{"name":"_limit","type":"uint256","indexed":false,"internalType":"uint256"}],"anonymous":false}],"bytecode":{"object":"0x608060405234801561001057600080fd5b5061089a806100206000396000f3fe608060405234801561001057600080fd5b50600436106100b45760003560e01c80634a932544116100715780634a932544146101625780634ae65b5c146101755780634cf4d295146101ac578063bcc21053146101d8578063e6f5e807146101ec578063f104a8c91461014f57600080fd5b8063013b7ce4146100b95780630694a5fb146100e157806306fdde03146100f65780632cb7e1ec14610129578063361fab251461013c578063372491a21461014f575b600080fd5b6100cc6100c7366004610644565b6101f3565b60405190151581526020015b60405180910390f35b6100f46100ef366004610697565b610316565b005b6040805180820182526011815270537570706c794c696d69744d6f64756c6560781b602082015290516100d891906106bb565b6100f4610137366004610709565b610415565b6100f461014a36600461074a565b610449565b6100f461015d366004610763565b6104c6565b6100f4610170366004610697565b6104f9565b61019e610183366004610697565b6001600160a01b031660009081526001602052604090205490565b6040519081526020016100d8565b6100cc6101ba366004610697565b6001600160a01b031660009081526020819052604090205460ff1690565b6100cc6101e6366004610697565b50600190565b60016100cc565b60006001600160a01b0385161580156102fd575060016000836001600160a01b03166001600160a01b031681526020019081526020016000205483836001600160a01b0316636a3edf286040518163ffffffff1660e01b8152600401602060405180830381865afa15801561026c573d6000803e3d6000fd5b505050506040513d601f19601f82011682018060405250810190610290919061078f565b6001600160a01b03166318160ddd6040518163ffffffff1660e01b8152600401602060405180830381865afa1580156102cd573d6000803e3d6000fd5b505050506040513d601f19601f820116820180604052508101906102f191906107ac565b6102fb91906107c5565b115b1561030a5750600061030e565b5060015b949350505050565b3360009081526020819052604090205460ff1661034e5760405162461bcd60e51b8152600401610345906107ec565b60405180910390fd5b6001600160a01b0381166103a45760405162461bcd60e51b815260206004820152601f60248201527f696e76616c696420617267756d656e74202d207a65726f2061646472657373006044820152606401610345565b336001600160a01b038216146103cc5760405162461bcd60e51b815260040161034590610823565b6001600160a01b038116600081815260208190526040808220805460ff19169055517f408b49d9be1c914c52a0227e18a077e5a892dddf32a26cfa94a5d9708fad77189190a250565b3360009081526020819052604090205460ff166104445760405162461bcd60e51b8152600401610345906107ec565b505050565b3360009081526020819052604090205460ff166104785760405162461bcd60e51b8152600401610345906107ec565b33600081815260016020908152604091829020849055815192835282018390527f2f1ac7412e0c36ff7b73f7c4f474022dfa5d3f1c09e3262f63c9eb4627a9f505910160405180910390a150565b3360009081526020819052604090205460ff166104f55760405162461bcd60e51b8152600401610345906107ec565b5050565b6001600160a01b03811661054f5760405162461bcd60e51b815260206004820152601f60248201527f696e76616c696420617267756d656e74202d207a65726f2061646472657373006044820152606401610345565b6001600160a01b03811660009081526020819052604090205460ff16156105b85760405162461bcd60e51b815260206004820152601860248201527f636f6d706c69616e636520616c726561647920626f756e6400000000000000006044820152606401610345565b336001600160a01b038216146105e05760405162461bcd60e51b815260040161034590610823565b6001600160a01b038116600081815260208190526040808220805460ff19166001179055517f1f7b76c58fb697eb53c6c7c1becb96911516a136e24d7ced386b2355358b75a39190a250565b6001600160a01b038116811461064157600080fd5b50565b6000806000806080858703121561065a57600080fd5b84356106658161062c565b935060208501356106758161062c565b925060408501359150606085013561068c8161062c565b939692955090935050565b6000602082840312156106a957600080fd5b81356106b48161062c565b9392505050565b600060208083528351808285015260005b818110156106e8578581018301518582016040015282016106cc565b506000604082860101526040601f19601f8301168501019250505092915050565b60008060006060848603121561071e57600080fd5b83356107298161062c565b925060208401356107398161062c565b929592945050506040919091013590565b60006020828403121561075c57600080fd5b5035919050565b6000806040838503121561077657600080fd5b82356107818161062c565b946020939093013593505050565b6000602082840312156107a157600080fd5b81516106b48161062c565b6000602082840312156107be57600080fd5b5051919050565b808201808211156107e657634e487b7160e01b600052601160045260246000fd5b92915050565b6020808252601e908201527f6f6e6c7920626f756e6420636f6d706c69616e63652063616e2063616c6c0000604082015260600190565b60208082526021908201527f6f6e6c7920636f6d706c69616e636520636f6e74726163742063616e2063616c6040820152601b60fa1b60608201526080019056fea2646970667358221220b75bb48dd53f186119b5a1b85dfdc1255f3e4ed3754d7df65c6c091be020a2da64736f6c63430008110033","linkReferences":{}},"methodIdentifiers":{"bindCompliance(address)":"4a932544","canComplianceBind(address)":"bcc21053","getSupplyLimit(address)":"4ae65b5c","isComplianceBound(address)":"4cf4d295","isPlugAndPlay()":"e6f5e807","moduleBurnAction(address,uint256)":"372491a2","moduleCheck(address,address,uint256,address)":"013b7ce4","moduleMintAction(address,uint256)":"f104a8c9","moduleTransferAction(address,address,uint256)":"2cb7e1ec","name()":"06fdde03","setSupplyLimit(uint256)":"361fab25","unbindCompliance(address)":"0694a5fb"},"id":37}