{"abi":[{"type":"function","name":"addAllowedCountry","inputs":[{"name":"_country","type":"uint16","internalType":"uint16"}],"outputs":[],"stateMutability":"nonpayable"},{"type":"function","name":"batchAllowCountries","inputs":[{"name":"_countries","type":"uint16[]","internalType":"uint16[]"}],"outputs":[],"stateMutability":"nonpayable"},{"type":"function","name":"batchDisallowCountries","inputs":[{"name":"_countries","type":"uint16[]","internalType":"uint16[]"}],"outputs":[],"stateMutability":"nonpayable"},{"type":"function","name":"bindCompliance","inputs":[{"name":"_compliance","type":"address","internalType":"address"}],"outputs":[],"stateMutability":"nonpayable"},{"type":"function","name":"canComplianceBind","inputs":[{"name":"","type":"address","internalType":"address"}],"outputs":[{"name":"","type":"bool","internalType":"bool"}],"stateMutability":"view"},{"type":"function","name":"isComplianceBound","inputs":[{"name":"_compliance","type":"address","internalType":"address"}],"outputs":[{"name":"","type":"bool","internalType":"bool"}],"stateMutability":"view"},{"type":"function","name":"isCountryAllowed","inputs":[{"name":"_compliance","type":"address","internalType":"address"},{"name":"_country","type":"uint16","internalType":"uint16"}],"outputs":[{"name":"","type":"bool","internalType":"bool"}],"stateMutability":"view"},{"type":"function","name":"isPlugAndPlay","inputs":[],"outputs":[{"name":"","type":"bool","internalType":"bool"}],"stateMutability":"pure"},{"type":"function","name":"moduleBurnAction","inputs":[{"name":"_from","type":"address","internalType":"address"},{"name":"_value","type":"uint256","internalType":"uint256"}],"outputs":[],"stateMutability":"nonpayable"},{"type":"function","name":"moduleCheck","inputs":[{"name":"","type":"address","internalType":"address"},{"name":"_to","type":"address","internalType":"address"},{"name":"","type":"uint256","internalType":"uint256"},{"name":"_compliance","type":"address","internalType":"address"}],"outputs":[{"name":"","type":"bool","internalType":"bool"}],"stateMutability":"view"},{"type":"function","name":"moduleMintAction","inputs":[{"name":"_to","type":"address","internalType":"address"},{"name":"_value","type":"uint256","internalType":"uint256"}],"outputs":[],"stateMutability":"nonpayable"},{"type":"function","name":"moduleTransferAction","inputs":[{"name":"_from","type":"address","internalType":"address"},{"name":"_to","type":"address","internalType":"address"},{"name":"_value","type":"uint256","internalType":"uint256"}],"outputs":[],"stateMutability":"nonpayable"},{"type":"function","name":"name","inputs":[],"outputs":[{"name":"_name","type":"string","internalType":"string"}],"stateMutability":"pure"},{"type":"function","name":"removeAllowedCountry","inputs":[{"name":"_country","type":"uint16","internalType":"uint16"}],"outputs":[],"stateMutability":"nonpayable"},{"type":"function","name":"unbindCompliance","inputs":[{"name":"_compliance","type":"address","internalType":"address"}],"outputs":[],"stateMutability":"nonpayable"},{"type":"event","name":"ComplianceBound","inputs":[{"name":"_compliance","type":"address","indexed":true,"internalType":"address"}],"anonymous":false},{"type":"event","name":"ComplianceUnbound","inputs":[{"name":"_compliance","type":"address","indexed":true,"internalType":"address"}],"anonymous":false},{"type":"event","name":"CountryAllowed","inputs":[{"name":"_compliance","type":"address","indexed":false,"internalType":"address"},{"name":"_country","type":"uint16","indexed":false,"internalType":"uint16"}],"anonymous":false},{"type":"event","name":"CountryUnallowed","inputs":[{"name":"_compliance","type":"address","indexed":false,"internalType":"address"},{"name":"_country","type":"uint16","indexed":false,"internalType":"uint16"}],"anonymous":false},{"type":"error","name":"CountryAlreadyAllowed","inputs":[{"name":"_compliance","type":"address","internalType":"address"},{"name":"_country","type":"uint16","internalType":"uint16"}]},{"type":"error","name":"CountryNotAllowed","inputs":[{"name":"_compliance","type":"address","internalType":"address"},{"name":"_country","type":"uint16","internalType":"uint16"}]}],"bytecode":{"object":"0x608060405234801561001057600080fd5b50610da0806100206000396000f3fe608060405234801561001057600080fd5b50600436106100f55760003560e01c80634cf4d29511610097578063bcc2105311610066578063bcc2105314610248578063c08e15021461025c578063e6f5e8071461026f578063f104a8c9146101bd57600080fd5b80634cf4d295146101e35780634f44425e1461020f578063771c528114610222578063817544c31461023557600080fd5b80630f4f0904116100d35780630f4f09041461016b5780632cb7e1ec146101aa578063372491a2146101bd5780634a932544146101d057600080fd5b8063013b7ce4146100fa5780630694a5fb1461012257806306fdde0314610137575b600080fd5b61010d610108366004610a58565b610276565b60405190151581526020015b60405180910390f35b610135610130366004610aab565b6102bb565b005b6040805180820182526012815271436f756e747279416c6c6f774d6f64756c6560701b602082015290516101199190610ac8565b61010d610179366004610b26565b6001600160a01b038216600090815260016020908152604080832061ffff8516845290915290205460ff1692915050565b6101356101b8366004610b5f565b6103ba565b6101356101cb366004610ba0565b6103ee565b6101356101de366004610aab565b610421565b61010d6101f1366004610aab565b6001600160a01b031660009081526020819052604090205460ff1690565b61013561021d366004610bcc565b610554565b610135610230366004610be9565b61062f565b610135610243366004610bcc565b610737565b61010d610256366004610aab565b50600190565b61013561026a366004610be9565b610803565b600161010d565b6000806102838386610908565b6001600160a01b038416600090815260016020908152604080832061ffff8516845290915290205490915060ff169695505050505050565b3360009081526020819052604090205460ff166102f35760405162461bcd60e51b81526004016102ea90610c5e565b60405180910390fd5b6001600160a01b0381166103495760405162461bcd60e51b815260206004820152601f60248201527f696e76616c696420617267756d656e74202d207a65726f20616464726573730060448201526064016102ea565b336001600160a01b038216146103715760405162461bcd60e51b81526004016102ea90610c95565b6001600160a01b038116600081815260208190526040808220805460ff19169055517f408b49d9be1c914c52a0227e18a077e5a892dddf32a26cfa94a5d9708fad77189190a250565b3360009081526020819052604090205460ff166103e95760405162461bcd60e51b81526004016102ea90610c5e565b505050565b3360009081526020819052604090205460ff1661041d5760405162461bcd60e51b81526004016102ea90610c5e565b5050565b6001600160a01b0381166104775760405162461bcd60e51b815260206004820152601f60248201527f696e76616c696420617267756d656e74202d207a65726f20616464726573730060448201526064016102ea565b6001600160a01b03811660009081526020819052604090205460ff16156104e05760405162461bcd60e51b815260206004820152601860248201527f636f6d706c69616e636520616c726561647920626f756e64000000000000000060448201526064016102ea565b336001600160a01b038216146105085760405162461bcd60e51b81526004016102ea90610c95565b6001600160a01b038116600081815260208190526040808220805460ff19166001179055517f1f7b76c58fb697eb53c6c7c1becb96911516a136e24d7ced386b2355358b75a39190a250565b3360009081526020819052604090205460ff166105835760405162461bcd60e51b81526004016102ea90610c5e565b33600090815260016020818152604080842061ffff861685529091529091205460ff16151590036105cb57338160405163af6d613560e01b81526004016102ea929190610cd6565b33600081815260016020818152604080842061ffff8716855290915291829020805460ff19169091179055517f48c279381632bf87fca2680865a7384b6eb20716fd96b882b305a2198930a07491610624918490610cd6565b60405180910390a150565b3360009081526020819052604090205460ff1661065e5760405162461bcd60e51b81526004016102ea90610c5e565b60005b818110156103e9573360009081526001602081905260408220909185858581811061068e5761068e610cf3565b90506020020160208101906106a39190610bcc565b61ffff1681526020810191909152604001600020805460ff19169115159190911790557f48c279381632bf87fca2680865a7384b6eb20716fd96b882b305a2198930a074338484848181106106fa576106fa610cf3565b905060200201602081019061070f9190610bcc565b60405161071d929190610cd6565b60405180910390a18061072f81610d09565b915050610661565b3360009081526020819052604090205460ff166107665760405162461bcd60e51b81526004016102ea90610c5e565b33600090815260016020908152604080832061ffff8516845290915281205460ff16151590036107ad57338160405163236a687560e11b81526004016102ea929190610cd6565b33600081815260016020908152604080832061ffff8616845290915290819020805460ff19169055517f35c7374bcb82f2355cb703c8ab6162f87fe83b99618bdb78c6d19b07ddf060a291610624918490610cd6565b3360009081526020819052604090205460ff166108325760405162461bcd60e51b81526004016102ea90610c5e565b60005b818110156103e9573360009081526001602052604081208185858581811061085f5761085f610cf3565b90506020020160208101906108749190610bcc565b61ffff1681526020810191909152604001600020805460ff19169115159190911790557f35c7374bcb82f2355cb703c8ab6162f87fe83b99618bdb78c6d19b07ddf060a2338484848181106108cb576108cb610cf3565b90506020020160208101906108e09190610bcc565b6040516108ee929190610cd6565b60405180910390a18061090081610d09565b915050610835565b6000826001600160a01b0316636a3edf286040518163ffffffff1660e01b8152600401602060405180830381865afa158015610948573d6000803e3d6000fd5b505050506040513d601f19601f8201168201806040525081019061096c9190610d30565b6001600160a01b031663134e18f46040518163ffffffff1660e01b8152600401602060405180830381865afa1580156109a9573d6000803e3d6000fd5b505050506040513d601f19601f820116820180604052508101906109cd9190610d30565b604051637e42683b60e01b81526001600160a01b0384811660048301529190911690637e42683b90602401602060405180830381865afa158015610a15573d6000803e3d6000fd5b505050506040513d601f19601f82011682018060405250810190610a399190610d4d565b9392505050565b6001600160a01b0381168114610a5557600080fd5b50565b60008060008060808587031215610a6e57600080fd5b8435610a7981610a40565b93506020850135610a8981610a40565b9250604085013591506060850135610aa081610a40565b939692955090935050565b600060208284031215610abd57600080fd5b8135610a3981610a40565b600060208083528351808285015260005b81811015610af557858101830151858201604001528201610ad9565b506000604082860101526040601f19601f8301168501019250505092915050565b61ffff81168114610a5557600080fd5b60008060408385031215610b3957600080fd5b8235610b4481610a40565b91506020830135610b5481610b16565b809150509250929050565b600080600060608486031215610b7457600080fd5b8335610b7f81610a40565b92506020840135610b8f81610a40565b929592945050506040919091013590565b60008060408385031215610bb357600080fd5b8235610bbe81610a40565b946020939093013593505050565b600060208284031215610bde57600080fd5b8135610a3981610b16565b60008060208385031215610bfc57600080fd5b823567ffffffffffffffff80821115610c1457600080fd5b818501915085601f830112610c2857600080fd5b813581811115610c3757600080fd5b8660208260051b8501011115610c4c57600080fd5b60209290920196919550909350505050565b6020808252601e908201527f6f6e6c7920626f756e6420636f6d706c69616e63652063616e2063616c6c0000604082015260600190565b60208082526021908201527f6f6e6c7920636f6d706c69616e636520636f6e74726163742063616e2063616c6040820152601b60fa1b606082015260800190565b6001600160a01b0392909216825261ffff16602082015260400190565b634e487b7160e01b600052603260045260246000fd5b600060018201610d2957634e487b7160e01b600052601160045260246000fd5b5060010190565b600060208284031215610d4257600080fd5b8151610a3981610a40565b600060208284031215610d5f57600080fd5b8151610a3981610b1656fea26469706673582212203494effe716a788f94a42c47da1ec9d27cd6cb9a2b6f2bafa4afb5149ed16a2764736f6c63430008110033","linkReferences":{}},"methodIdentifiers":{"addAllowedCountry(uint16)":"4f44425e","batchAllowCountries(uint16[])":"771c5281","batchDisallowCountries(uint16[])":"c08e1502","bindCompliance(address)":"4a932544","canComplianceBind(address)":"bcc21053","isComplianceBound(address)":"4cf4d295","isCountryAllowed(address,uint16)":"0f4f0904","isPlugAndPlay()":"e6f5e807","moduleBurnAction(address,uint256)":"372491a2","moduleCheck(address,address,uint256,address)":"013b7ce4","moduleMintAction(address,uint256)":"f104a8c9","moduleTransferAction(address,address,uint256)":"2cb7e1ec","name()":"06fdde03","removeAllowedCountry(uint16)":"817544c3","unbindCompliance(address)":"0694a5fb"},"id":32}