{"abi":[{"type":"function","name":"isClaimValid","inputs":[{"name":"_identity","type":"address","internalType":"address"},{"name":"claimTopic","type":"uint256","internalType":"uint256"},{"name":"sig","type":"bytes","internalType":"bytes"},{"name":"data","type":"bytes","internalType":"bytes"}],"outputs":[{"name":"","type":"bool","internalType":"bool"}],"stateMutability":"view"}],"bytecode":{"object":"0x608060405234801561001057600080fd5b506101c6806100206000396000f3fe608060405234801561001057600080fd5b506004361061002b5760003560e01c8063c0969a6e14610030575b600080fd5b61004361003e3660046100f8565b610057565b604051901515815260200160405180910390f35b60006001600160a01b0387163303610071575060016100a5565b60405162461bcd60e51b815260206004820152600560248201526422a92927a960d91b604482015260640160405180910390fd5b9695505050505050565b60008083601f8401126100c157600080fd5b50813567ffffffffffffffff8111156100d957600080fd5b6020830191508360208285010111156100f157600080fd5b9250929050565b6000806000806000806080878903121561011157600080fd5b86356001600160a01b038116811461012857600080fd5b955060208701359450604087013567ffffffffffffffff8082111561014c57600080fd5b6101588a838b016100af565b9096509450606089013591508082111561017157600080fd5b5061017e89828a016100af565b979a969950949750929593949250505056fea2646970667358221220184d27a28713d6397864ea56007fc64696bab5f2d89f27c75b29c2d9a8e34cd964736f6c63430008110033","linkReferences":{}},"methodIdentifiers":{"isClaimValid(address,uint256,bytes,bytes)":"c0969a6e"},"id":3}