{"abi":[{"type":"function","name":"version","inputs":[],"outputs":[{"name":"","type":"string","internalType":"string"}],"stateMutability":"pure"}],"bytecode":{"object":"0x608060405234801561001057600080fd5b5060dd8061001f6000396000f3fe6080604052348015600f57600080fd5b506004361060285760003560e01c806354fd4d5014602d575b600080fd5b6040805180820182526005815264322e302e3160d81b6020820152905160529190605b565b60405180910390f35b600060208083528351808285015260005b81811015608657858101830151858201604001528201606c565b506000604082860101526040601f19601f830116850101925050509291505056fea2646970667358221220c46f9bd79399d791406189fc2fd16d87dce8b1f41180a4d22e4b6322a44c35fe64736f6c63430008110033","linkReferences":{}},"methodIdentifiers":{"version()":"54fd4d50"},"id":115}