{"abi":[{"type":"function","name":"addExchangeID","inputs":[{"name":"_exchangeID","type":"address","internalType":"address"}],"outputs":[],"stateMutability":"nonpayable"},{"type":"function","name":"bindCompliance","inputs":[{"name":"_compliance","type":"address","internalType":"address"}],"outputs":[],"stateMutability":"nonpayable"},{"type":"function","name":"canComplianceBind","inputs":[{"name":"","type":"address","internalType":"address"}],"outputs":[{"name":"","type":"bool","internalType":"bool"}],"stateMutability":"view"},{"type":"function","name":"getExchangeMonthlyLimit","inputs":[{"name":"compliance","type":"address","internalType":"address"},{"name":"_exchangeID","type":"address","internalType":"address"}],"outputs":[{"name":"","type":"uint256","internalType":"uint256"}],"stateMutability":"view"},{"type":"function","name":"getMonthlyCounter","inputs":[{"name":"compliance","type":"address","internalType":"address"},{"name":"_exchangeID","type":"address","internalType":"address"},{"name":"_investorID","type":"address","internalType":"address"}],"outputs":[{"name":"","type":"uint256","internalType":"uint256"}],"stateMutability":"view"},{"type":"function","name":"getMonthlyTimer","inputs":[{"name":"compliance","type":"address","internalType":"address"},{"name":"_exchangeID","type":"address","internalType":"address"},{"name":"_investorID","type":"address","internalType":"address"}],"outputs":[{"name":"","type":"uint256","internalType":"uint256"}],"stateMutability":"view"},{"type":"function","name":"isComplianceBound","inputs":[{"name":"_compliance","type":"address","internalType":"address"}],"outputs":[{"name":"","type":"bool","internalType":"bool"}],"stateMutability":"view"},{"type":"function","name":"isExchangeID","inputs":[{"name":"_exchangeID","type":"address","internalType":"address"}],"outputs":[{"name":"","type":"bool","internalType":"bool"}],"stateMutability":"view"},{"type":"function","name":"isPlugAndPlay","inputs":[],"outputs":[{"name":"","type":"bool","internalType":"bool"}],"stateMutability":"pure"},{"type":"function","name":"moduleBurnAction","inputs":[{"name":"","type":"address","internalType":"address"},{"name":"","type":"uint256","internalType":"uint256"}],"outputs":[],"stateMutability":"nonpayable"},{"type":"function","name":"moduleCheck","inputs":[{"name":"_from","type":"address","internalType":"address"},{"name":"_to","type":"address","internalType":"address"},{"name":"_value","type":"uint256","internalType":"uint256"},{"name":"_compliance","type":"address","internalType":"address"}],"outputs":[{"name":"","type":"bool","internalType":"bool"}],"stateMutability":"view"},{"type":"function","name":"moduleMintAction","inputs":[{"name":"","type":"address","internalType":"address"},{"name":"","type":"uint256","internalType":"uint256"}],"outputs":[],"stateMutability":"nonpayable"},{"type":"function","name":"moduleTransferAction","inputs":[{"name":"_from","type":"address","internalType":"address"},{"name":"_to","type":"address","internalType":"address"},{"name":"_value","type":"uint256","internalType":"uint256"}],"outputs":[],"stateMutability":"nonpayable"},{"type":"function","name":"name","inputs":[],"outputs":[{"name":"_name","type":"string","internalType":"string"}],"stateMutability":"pure"},{"type":"function","name":"owner","inputs":[],"outputs":[{"name":"","type":"address","internalType":"address"}],"stateMutability":"view"},{"type":"function","name":"removeExchangeID","inputs":[{"name":"_exchangeID","type":"address","internalType":"address"}],"outputs":[],"stateMutability":"nonpayable"},{"type":"function","name":"renounceOwnership","inputs":[],"outputs":[],"stateMutability":"nonpayable"},{"type":"function","name":"setExchangeMonthlyLimit","inputs":[{"name":"_exchangeID","type":"address","internalType":"address"},{"name":"_newExchangeMonthlyLimit","type":"uint256","internalType":"uint256"}],"outputs":[],"stateMutability":"nonpayable"},{"type":"function","name":"transferOwnership","inputs":[{"name":"newOwner","type":"address","internalType":"address"}],"outputs":[],"stateMutability":"nonpayable"},{"type":"function","name":"unbindCompliance","inputs":[{"name":"_compliance","type":"address","internalType":"address"}],"outputs":[],"stateMutability":"nonpayable"},{"type":"event","name":"ComplianceBound","inputs":[{"name":"_compliance","type":"address","indexed":true,"internalType":"address"}],"anonymous":false},{"type":"event","name":"ComplianceUnbound","inputs":[{"name":"_compliance","type":"address","indexed":true,"internalType":"address"}],"anonymous":false},{"type":"event","name":"ExchangeIDAdded","inputs":[{"name":"_newExchangeID","type":"address","indexed":false,"internalType":"address"}],"anonymous":false},{"type":"event","name":"ExchangeIDRemoved","inputs":[{"name":"_exchangeID","type":"address","indexed":false,"internalType":"address"}],"anonymous":false},{"type":"event","name":"ExchangeMonthlyLimitUpdated","inputs":[{"name":"compliance","type":"address","indexed":true,"internalType":"address"},{"name":"_exchangeID","type":"address","indexed":false,"internalType":"address"},{"name":"_newExchangeMonthlyLimit","type":"uint256","indexed":false,"internalType":"uint256"}],"anonymous":false},{"type":"event","name":"OwnershipTransferred","inputs":[{"name":"previousOwner","type":"address","indexed":true,"internalType":"address"},{"name":"newOwner","type":"address","indexed":true,"internalType":"address"}],"anonymous":false},{"type":"error","name":"ONCHAINIDAlreadyTaggedAsExchange","inputs":[{"name":"_exchangeID","type":"address","internalType":"address"}]},{"type":"error","name":"ONCHAINIDNotTaggedAsExchange","inputs":[{"name":"_exchangeID","type":"address","internalType":"address"}]}],"bytecode":{"object":"0x608060405234801561001057600080fd5b5061001a3361001f565b610071565b600180546001600160a01b038381166001600160a01b0319831681179093556040519116919082907f8be0079c531659141344cd1fd0a4f28419497f9722a3daafe3b4186f6b6457e090600090a35050565b611057806100806000396000f3fe608060405234801561001057600080fd5b506004361061012c5760003560e01c806374436d97116100ad578063cafa20d511610071578063cafa20d5146102b6578063d22579fb146102f9578063e6f5e8071461030c578063f104a8c9146101d3578063f2fde38b1461031357600080fd5b806374436d971461024e5780638da5cb5b14610261578063a9336def1461027c578063bcc210531461028f578063c5b99969146102a357600080fd5b8063372491a2116100f4578063372491a2146101d35780634a932544146101e65780634cf4d295146101f9578063616c658914610225578063715018a61461024657600080fd5b8063013b7ce4146101315780630694a5fb1461015957806306fdde031461016e5780632bb5e721146101ad5780632cb7e1ec146101c0575b600080fd5b61014461013f366004610d9a565b610326565b60405190151581526020015b60405180910390f35b61016c610167366004610ded565b610462565b005b604080518082018252601b81527f45786368616e67654d6f6e74686c794c696d6974734d6f64756c650000000000602082015290516101509190610e0a565b61016c6101bb366004610ded565b610561565b61016c6101ce366004610e58565b6105f6565b61016c6101e1366004610e99565b610675565b61016c6101f4366004610ded565b6106a8565b610144610207366004610ded565b6001600160a01b031660009081526020819052604090205460ff1690565b610238610233366004610ec5565b6107db565b604051908152602001610150565b61016c610813565b61016c61025c366004610ded565b610827565b6001546040516001600160a01b039091168152602001610150565b61016c61028a366004610e99565b6108b1565b61014461029d366004610ded565b50600190565b6102386102b1366004610f10565b610943565b6102386102c4366004610ec5565b6001600160a01b0392831660009081526003602090815260408083209486168352938152838220929094168152925290205490565b610144610307366004610ded565b610970565b6001610144565b61016c610321366004610ded565b61098e565b60006001600160a01b038516158061034357506103438286610a07565b156103505750600161045a565b600061035c8387610ade565b905061036781610970565b1561037657600191505061045a565b60006103828487610ade565b905061038d81610970565b61039c5760019250505061045a565b6001600160a01b038085166000908152600260209081526040808320938516835292905220548511156103d45760009250505061045a565b6103df848284610c0f565b156103ef5760019250505061045a565b6001600160a01b0384811660008181526002602090815260408083208686168085529083528184205494845260038352818420908452825280832094871683529390529190912054610442908790610f49565b11156104535760009250505061045a565b6001925050505b949350505050565b3360009081526020819052604090205460ff1661049a5760405162461bcd60e51b815260040161049190610f6a565b60405180910390fd5b6001600160a01b0381166104f05760405162461bcd60e51b815260206004820152601f60248201527f696e76616c696420617267756d656e74202d207a65726f2061646472657373006044820152606401610491565b336001600160a01b038216146105185760405162461bcd60e51b815260040161049190610fa1565b6001600160a01b038116600081815260208190526040808220805460ff19169055517f408b49d9be1c914c52a0227e18a077e5a892dddf32a26cfa94a5d9708fad77189190a250565b610569610c27565b61057281610970565b1561059b576040516345d1498b60e01b81526001600160a01b0382166004820152602401610491565b6001600160a01b038116600081815260046020908152604091829020805460ff1916600117905590519182527fca661533a567195376b79f20fcbcca20e62ceea1d43efacba5f8028329da8e6b91015b60405180910390a150565b3360009081526020819052604090205460ff166106255760405162461bcd60e51b815260040161049190610f6a565b60006106313385610ade565b9050600061063f3385610ade565b905061064a81610970565b801561065d575061065b3386610a07565b155b1561066e5761066e33828486610c81565b5050505050565b3360009081526020819052604090205460ff166106a45760405162461bcd60e51b815260040161049190610f6a565b5050565b6001600160a01b0381166106fe5760405162461bcd60e51b815260206004820152601f60248201527f696e76616c696420617267756d656e74202d207a65726f2061646472657373006044820152606401610491565b6001600160a01b03811660009081526020819052604090205460ff16156107675760405162461bcd60e51b815260206004820152601860248201527f636f6d706c69616e636520616c726561647920626f756e6400000000000000006044820152606401610491565b336001600160a01b0382161461078f5760405162461bcd60e51b815260040161049190610fa1565b6001600160a01b038116600081815260208190526040808220805460ff19166001179055517f1f7b76c58fb697eb53c6c7c1becb96911516a136e24d7ced386b2355358b75a39190a250565b6001600160a01b0392831660009081526003602090815260408083209486168352938152838220929094168152925290206001015490565b61081b610c27565b6108256000610cd8565b565b61082f610c27565b61083881610970565b61086057604051630120783160e61b81526001600160a01b0382166004820152602401610491565b6001600160a01b038116600081815260046020908152604091829020805460ff1916905590519182527fc59743ca46d36b7cf42c36211a2fbef12e10aec1bfc9d39eccf91b6976a260f591016105eb565b3360009081526020819052604090205460ff166108e05760405162461bcd60e51b815260040161049190610f6a565b3360008181526002602090815260408083206001600160a01b0387168085529083529281902085905580519283529082018490527f14902018104a24b79253a1e29e979c8b957bc80c71b062ca985f879888e6ea1e910160405180910390a25050565b6001600160a01b038083166000908152600260209081526040808320938516835292905220545b92915050565b6001600160a01b031660009081526004602052604090205460ff1690565b610996610c27565b6001600160a01b0381166109fb5760405162461bcd60e51b815260206004820152602660248201527f4f776e61626c653a206e6577206f776e657220697320746865207a65726f206160448201526564647265737360d01b6064820152608401610491565b610a0481610cd8565b50565b6000826001600160a01b0316636a3edf286040518163ffffffff1660e01b8152600401602060405180830381865afa158015610a47573d6000803e3d6000fd5b505050506040513d601f19601f82011682018060405250810190610a6b9190610fe2565b6040516307feec1960e21b81526001600160a01b0384811660048301529190911690631ffbb06490602401602060405180830381865afa158015610ab3573d6000803e3d6000fd5b505050506040513d601f19601f82011682018060405250810190610ad79190610fff565b9392505050565b6000826001600160a01b0316636a3edf286040518163ffffffff1660e01b8152600401602060405180830381865afa158015610b1e573d6000803e3d6000fd5b505050506040513d601f19601f82011682018060405250810190610b429190610fe2565b6001600160a01b031663134e18f46040518163ffffffff1660e01b8152600401602060405180830381865afa158015610b7f573d6000803e3d6000fd5b505050506040513d601f19601f82011682018060405250810190610ba39190610fe2565b604051633c3ad79560e21b81526001600160a01b038481166004830152919091169063f0eb5e5490602401602060405180830381865afa158015610beb573d6000803e3d6000fd5b505050506040513d601f19601f82011682018060405250810190610ad79190610fe2565b600042610c1d8585856107db565b1115949350505050565b6001546001600160a01b031633146108255760405162461bcd60e51b815260206004820181905260248201527f4f776e61626c653a2063616c6c6572206973206e6f7420746865206f776e65726044820152606401610491565b610c8c848484610d2a565b6001600160a01b0380851660009081526003602090815260408083208785168452825280832093861683529290529081208054839290610ccd908490610f49565b909155505050505050565b600180546001600160a01b038381166001600160a01b0319831681179093556040519116919082907f8be0079c531659141344cd1fd0a4f28419497f9722a3daafe3b4186f6b6457e090600090a35050565b610d35838383610c0f565b15610d80576001600160a01b03808416600090815260036020908152604080832086851684528252808320938516835292905220610d764262278d00610f49565b6001820155600090555b505050565b6001600160a01b0381168114610a0457600080fd5b60008060008060808587031215610db057600080fd5b8435610dbb81610d85565b93506020850135610dcb81610d85565b9250604085013591506060850135610de281610d85565b939692955090935050565b600060208284031215610dff57600080fd5b8135610ad781610d85565b600060208083528351808285015260005b81811015610e3757858101830151858201604001528201610e1b565b506000604082860101526040601f19601f8301168501019250505092915050565b600080600060608486031215610e6d57600080fd5b8335610e7881610d85565b92506020840135610e8881610d85565b929592945050506040919091013590565b60008060408385031215610eac57600080fd5b8235610eb781610d85565b946020939093013593505050565b600080600060608486031215610eda57600080fd5b8335610ee581610d85565b92506020840135610ef581610d85565b91506040840135610f0581610d85565b809150509250925092565b60008060408385031215610f2357600080fd5b8235610f2e81610d85565b91506020830135610f3e81610d85565b809150509250929050565b8082018082111561096a57634e487b7160e01b600052601160045260246000fd5b6020808252601e908201527f6f6e6c7920626f756e6420636f6d706c69616e63652063616e2063616c6c0000604082015260600190565b60208082526021908201527f6f6e6c7920636f6d706c69616e636520636f6e74726163742063616e2063616c6040820152601b60fa1b606082015260800190565b600060208284031215610ff457600080fd5b8151610ad781610d85565b60006020828403121561101157600080fd5b81518015158114610ad757600080fdfea26469706673582212207bc3ff6132941dec396952cdf1443c7fbe4311358e2167a79bab4f1bb7e71a3564736f6c63430008110033","linkReferences":{}},"methodIdentifiers":{"addExchangeID(address)":"2bb5e721","bindCompliance(address)":"4a932544","canComplianceBind(address)":"bcc21053","getExchangeMonthlyLimit(address,address)":"c5b99969","getMonthlyCounter(address,address,address)":"cafa20d5","getMonthlyTimer(address,address,address)":"616c6589","isComplianceBound(address)":"4cf4d295","isExchangeID(address)":"d22579fb","isPlugAndPlay()":"e6f5e807","moduleBurnAction(address,uint256)":"372491a2","moduleCheck(address,address,uint256,address)":"013b7ce4","moduleMintAction(address,uint256)":"f104a8c9","moduleTransferAction(address,address,uint256)":"2cb7e1ec","name()":"06fdde03","owner()":"8da5cb5b","removeExchangeID(address)":"74436d97","renounceOwnership()":"715018a6","setExchangeMonthlyLimit(address,uint256)":"a9336def","transferOwnership(address)":"f2fde38b","unbindCompliance(address)":"0694a5fb"},"id":34}