{"abi":[{"type":"constructor","inputs":[{"name":"implementationAuthority","type":"address","internalType":"address"}],"stateMutability":"nonpayable"},{"type":"function","name":"addTokenFactory","inputs":[{"name":"_factory","type":"address","internalType":"address"}],"outputs":[],"stateMutability":"nonpayable"},{"type":"function","name":"createIdentity","inputs":[{"name":"_wallet","type":"address","internalType":"address"},{"name":"_salt","type":"string","internalType":"string"}],"outputs":[{"name":"","type":"address","internalType":"address"}],"stateMutability":"nonpayable"},{"type":"function","name":"createIdentityWithManagementKeys","inputs":[{"name":"_wallet","type":"address","internalType":"address"},{"name":"_salt","type":"string","internalType":"string"},{"name":"_managementKeys","type":"bytes32[]","internalType":"bytes32[]"}],"outputs":[{"name":"","type":"address","internalType":"address"}],"stateMutability":"nonpayable"},{"type":"function","name":"createTokenIdentity","inputs":[{"name":"_token","type":"address","internalType":"address"},{"name":"_tokenOwner","type":"address","internalType":"address"},{"name":"_salt","type":"string","internalType":"string"}],"outputs":[{"name":"","type":"address","internalType":"address"}],"stateMutability":"nonpayable"},{"type":"function","name":"getIdentity","inputs":[{"name":"_wallet","type":"address","internalType":"address"}],"outputs":[{"name":"","type":"address","internalType":"address"}],"stateMutability":"view"},{"type":"function","name":"getToken","inputs":[{"name":"_identity","type":"address","internalType":"address"}],"outputs":[{"name":"","type":"address","internalType":"address"}],"stateMutability":"view"},{"type":"function","name":"getWallets","inputs":[{"name":"_identity","type":"address","internalType":"address"}],"outputs":[{"name":"","type":"address[]","internalType":"address[]"}],"stateMutability":"view"},{"type":"function","name":"isSaltTaken","inputs":[{"name":"_salt","type":"string","internalType":"string"}],"outputs":[{"name":"","type":"bool","internalType":"bool"}],"stateMutability":"view"},{"type":"function","name":"isTokenFactory","inputs":[{"name":"_factory","type":"address","internalType":"address"}],"outputs":[{"name":"","type":"bool","internalType":"bool"}],"stateMutability":"view"},{"type":"function","name":"linkWallet","inputs":[{"name":"_newWallet","type":"address","internalType":"address"}],"outputs":[],"stateMutability":"nonpayable"},{"type":"function","name":"owner","inputs":[],"outputs":[{"name":"","type":"address","internalType":"address"}],"stateMutability":"view"},{"type":"function","name":"removeTokenFactory","inputs":[{"name":"_factory","type":"address","internalType":"address"}],"outputs":[],"stateMutability":"nonpayable"},{"type":"function","name":"renounceOwnership","inputs":[],"outputs":[],"stateMutability":"nonpayable"},{"type":"function","name":"transferOwnership","inputs":[{"name":"newOwner","type":"address","internalType":"address"}],"outputs":[],"stateMutability":"nonpayable"},{"type":"function","name":"unlinkWallet","inputs":[{"name":"_oldWallet","type":"address","internalType":"address"}],"outputs":[],"stateMutability":"nonpayable"},{"type":"event","name":"Deployed","inputs":[{"name":"_addr","type":"address","indexed":true,"internalType":"address"}],"anonymous":false},{"type":"event","name":"OwnershipTransferred","inputs":[{"name":"previousOwner","type":"address","indexed":true,"internalType":"address"},{"name":"newOwner","type":"address","indexed":true,"internalType":"address"}],"anonymous":false},{"type":"event","name":"TokenFactoryAdded","inputs":[{"name":"factory","type":"address","indexed":true,"internalType":"address"}],"anonymous":false},{"type":"event","name":"TokenFactoryRemoved","inputs":[{"name":"factory","type":"address","indexed":true,"internalType":"address"}],"anonymous":false},{"type":"event","name":"TokenLinked","inputs":[{"name":"token","type":"address","indexed":true,"internalType":"address"},{"name":"identity","type":"address","indexed":true,"internalType":"address"}],"anonymous":false},{"type":"event","name":"WalletLinked","inputs":[{"name":"wallet","type":"address","indexed":true,"internalType":"address"},{"name":"identity","type":"address","indexed":true,"internalType":"address"}],"anonymous":false},{"type":"event","name":"WalletUnlinked","inputs":[{"name":"wallet","type":"address","indexed":true,"internalType":"address"},{"name":"identity","type":"address","indexed":true,"internalType":"address"}],"anonymous":false}],"bytecode":{"object":"0x60a06040523480156200001157600080fd5b5060405162002357380380620023578339810160408190526200003491620000fc565b6200003f33620000ac565b6001600160a01b0381166200009a5760405162461bcd60e51b815260206004820152601f60248201527f696e76616c696420617267756d656e74202d207a65726f206164647265737300604482015260640160405180910390fd5b6001600160a01b03166080526200012e565b600080546001600160a01b038381166001600160a01b0319831681178455604051919092169283917f8be0079c531659141344cd1fd0a4f28419497f9722a3daafe3b4186f6b6457e09190a35050565b6000602082840312156200010f57600080fd5b81516001600160a01b03811681146200012757600080fd5b9392505050565b6080516121ff620001586000396000818161058e01528181610b23015261127501526121ff6000f3fe60806040523480156200001157600080fd5b5060043610620001095760003560e01c8063715018a611620000a35780639ce19365116200006e5780639ce193651462000268578063b8bb8126146200027f578063f2fde38b1462000296578063fe5cd59a14620002ad57600080fd5b8063715018a6146200021e5780638da5cb5b14620002285780638e952bfe146200023a578063937529ef146200025157600080fd5b80633e3bc3d711620000e45780633e3bc3d71462000181578063422c29a414620001b05780635027dbe214620001d65780635977043814620001ef57600080fd5b80632fea7b81146200010e5780633a50045114620001425780633d56ff66146200016a575b600080fd5b620001256200011f3660046200175f565b620002c4565b6040516001600160a01b0390911681526020015b60405180910390f35b620001596200015336600462001784565b6200032a565b604051901515815260200162000139565b620001256200017b366004620018bc565b6200035c565b62000159620001923660046200175f565b6001600160a01b031660009081526001602052604090205460ff1690565b620001c7620001c13660046200175f565b6200065c565b60405162000139919062001922565b620001ed620001e73660046200175f565b620006d4565b005b62000125620002003660046200175f565b6001600160a01b039081166000908152600660205260409020541690565b620001ed620009ac565b6000546001600160a01b031662000125565b620001256200024b36600462001971565b620009c4565b620001ed620002623660046200175f565b62000c01565b620001ed620002793660046200175f565b62000cd7565b620001ed620002903660046200175f565b62000db8565b620001ed620002a73660046200175f565b62001036565b62000125620002be366004620019c5565b620010b5565b6001600160a01b03818116600090815260056020526040812054909116156200030657506001600160a01b039081166000908152600560205260409020541690565b506001600160a01b039081166000908152600360205260409020541690565b919050565b6000600283836040516200034092919062001ab2565b9081526040519081900360200190205460ff1690505b92915050565b3360009081526001602052604081205460ff16806200038557506000546001600160a01b031633145b620003d75760405162461bcd60e51b815260206004820152601e60248201527f6f6e6c7920466163746f7279206f72206f776e65722063616e2063616c6c000060448201526064015b60405180910390fd5b6001600160a01b038416620004005760405162461bcd60e51b8152600401620003ce9062001ac2565b6001600160a01b038316620004295760405162461bcd60e51b8152600401620003ce9062001ac2565b6040516020016200044590602080825260009082015260400190565b60405160208183030381529060405280519060200120826040516020016200046e919062001b1f565b6040516020818303038152906040528051906020012003620004a45760405162461bcd60e51b8152600401620003ce9062001b54565b600082604051602001620004b9919062001b8b565b6040516020818303038152906040529050600281604051620004dc919062001bba565b9081526040519081900360200190205460ff16156200050f5760405162461bcd60e51b8152600401620003ce9062001bd8565b6001600160a01b038581166000908152600560205260409020541615620005855760405162461bcd60e51b815260206004820152602360248201527f746f6b656e20616c7265616479206c696e6b656420746f20616e206964656e7460448201526269747960e81b6064820152608401620003ce565b6000620005b4827f00000000000000000000000000000000000000000000000000000000000000008762001575565b90506001600283604051620005ca919062001bba565b9081526040805160209281900383018120805460ff1916941515949094179093556001600160a01b0389811660008181526005855283812080546001600160a01b0319908116948916948517909155838252600690955292832080549094168117909355927fa8261d398ddc63db24cc53cd0c63c9464cabad1bc478ede2107b32c1c4010b7a9190a395945050505050565b6001600160a01b038116600090815260046020908152604091829020805483518184028101840190945280845260609392830182828015620006c857602002820191906000526020600020905b81546001600160a01b03168152600190910190602001808311620006a9575b50505050509050919050565b6001600160a01b038116620006fd5760405162461bcd60e51b8152600401620003ce9062001ac2565b336001600160a01b03821603620007625760405162461bcd60e51b815260206004820152602260248201527f63616e6e6f742062652063616c6c6564206f6e2073656e646572206164647265604482015261737360f01b6064820152608401620003ce565b6001600160a01b03808216600090815260036020526040808220543383529120548216911614620007d65760405162461bcd60e51b815260206004820152601f60248201527f6f6e6c792061206c696e6b65642077616c6c65742063616e20756e6c696e6b006044820152606401620003ce565b6001600160a01b03808216600090815260036020908152604080832080546001600160a01b03198116909155909316808352600490915291812054905b8181101562000966576001600160a01b038381166000908152600460205260409020805491861691839081106200084e576200084e62001c04565b6000918252602090912001546001600160a01b03160362000951576001600160a01b03831660009081526004602052604090206200088e60018462001c30565b81548110620008a157620008a162001c04565b60009182526020808320909101546001600160a01b03868116845260049092526040909220805491909216919083908110620008e157620008e162001c04565b600091825260208083209190910180546001600160a01b0319166001600160a01b03948516179055918516815260049091526040902080548062000929576200092962001c46565b600082815260209020810160001990810180546001600160a01b031916905501905562000966565b806200095d8162001c5c565b91505062000813565b50816001600160a01b0316836001600160a01b03167f35e6fc363a4bf723d53b26c1a751674aca9c3ead425f0591f84f5540ede86f1260405160405180910390a3505050565b620009b662001605565b620009c2600062001661565b565b6000620009d062001605565b6001600160a01b038316620009f95760405162461bcd60e51b8152600401620003ce9062001ac2565b60405160200162000a1590602080825260009082015260400190565b604051602081830303815290604052805190602001208260405160200162000a3e919062001b1f565b604051602081830303815290604052805190602001200362000a745760405162461bcd60e51b8152600401620003ce9062001b54565b60008260405160200162000a89919062001c78565b604051602081830303815290604052905060028160405162000aac919062001bba565b9081526040519081900360200190205460ff161562000adf5760405162461bcd60e51b8152600401620003ce9062001bd8565b6001600160a01b03848116600090815260036020526040902054161562000b1a5760405162461bcd60e51b8152600401620003ce9062001ca5565b600062000b49827f00000000000000000000000000000000000000000000000000000000000000008762001575565b9050600160028360405162000b5f919062001bba565b9081526040805160209281900383018120805460ff1916941515949094179093556001600160a01b0388811660008181526003855283812080546001600160a01b0319908116948916948517909155838252600486529381208054600181018255908252948120909401805490931681179092559290917f8e0c709111388f5480579514d86663489ab1f206fe6da1a0c4d03ac8c318b3c691a3949350505050565b62000c0b62001605565b6001600160a01b03811662000c345760405162461bcd60e51b8152600401620003ce9062001ac2565b6001600160a01b03811660009081526001602052604090205460ff1662000c8e5760405162461bcd60e51b815260206004820152600d60248201526c6e6f74206120666163746f727960981b6044820152606401620003ce565b6001600160a01b038116600081815260016020526040808220805460ff19169055517fd1fd5274f793d20291c0abfe42e1ef63213a11b34996d485f7afb8fe014248519190a250565b62000ce162001605565b6001600160a01b03811662000d0a5760405162461bcd60e51b8152600401620003ce9062001ac2565b6001600160a01b03811660009081526001602052604090205460ff161562000d695760405162461bcd60e51b8152602060048201526011602482015270616c7265616479206120666163746f727960781b6044820152606401620003ce565b6001600160a01b0381166000818152600160208190526040808320805460ff1916909217909155517f45eb8ac5344d2d3f306550fe6e969ca4190526313c512afed851d052bf2ab2fd9190a250565b6001600160a01b03811662000de15760405162461bcd60e51b8152600401620003ce9062001ac2565b336000908152600360205260409020546001600160a01b031662000e5a5760405162461bcd60e51b815260206004820152602960248201527f77616c6c6574206e6f74206c696e6b656420746f20616e206964656e746974796044820152680818dbdb9d1c9858dd60ba1b6064820152608401620003ce565b6001600160a01b03818116600090815260036020526040902054161562000ec45760405162461bcd60e51b815260206004820152601960248201527f6e65772077616c6c657420616c7265616479206c696e6b6564000000000000006044820152606401620003ce565b6001600160a01b03818116600090815260056020526040902054161562000f2e5760405162461bcd60e51b815260206004820181905260248201527f696e76616c696420617267756d656e74202d20746f6b656e20616464726573736044820152606401620003ce565b336000908152600360209081526040808320546001600160a01b031680845260049092529091205460651162000fb55760405162461bcd60e51b815260206004820152602560248201527f6d617820616d6f756e74206f662077616c6c6574732070657220494420657863604482015264195959195960da1b6064820152608401620003ce565b6001600160a01b03808316600081815260036020908152604080832080549587166001600160a01b031996871681179091558084526004835281842080546001810182559085529284209092018054909516841790945592517f8e0c709111388f5480579514d86663489ab1f206fe6da1a0c4d03ac8c318b3c69190a35050565b6200104062001605565b6001600160a01b038116620010a75760405162461bcd60e51b815260206004820152602660248201527f4f776e61626c653a206e6577206f776e657220697320746865207a65726f206160448201526564647265737360d01b6064820152608401620003ce565b620010b28162001661565b50565b6000620010c162001605565b6001600160a01b038416620010ea5760405162461bcd60e51b8152600401620003ce9062001ac2565b6040516020016200110690602080825260009082015260400190565b60405160208183030381529060405280519060200120836040516020016200112f919062001b1f565b6040516020818303038152906040528051906020012003620011655760405162461bcd60e51b8152600401620003ce9062001b54565b6000836040516020016200117a919062001c78565b60405160208183030381529060405290506002816040516200119d919062001bba565b9081526040519081900360200190205460ff1615620011d05760405162461bcd60e51b8152600401620003ce9062001bd8565b6001600160a01b0385811660009081526003602052604090205416156200120b5760405162461bcd60e51b8152600401620003ce9062001ca5565b60008351116200126c5760405162461bcd60e51b815260206004820152602560248201527f696e76616c696420617267756d656e74202d20656d707479206c697374206f66604482015264206b65797360d81b6064820152608401620003ce565b60006200129b827f00000000000000000000000000000000000000000000000000000000000000003062001575565b905060005b84518110156200142157604080516001600160a01b03891660208201520160405160208183030381529060405280519060200120858281518110620012e957620012e962001c04565b602002602001015103620013665760405162461bcd60e51b815260206004820152603b60248201527f696e76616c696420617267756d656e74202d2077616c6c657420697320616c7360448201527f6f206c697374656420696e206d616e6167656d656e74206b65797300000000006064820152608401620003ce565b816001600160a01b0316631d3812408683815181106200138a576200138a62001c04565b60200260200101516001806040518463ffffffff1660e01b8152600401620013c5939291909283526020830191909152604082015260600190565b6020604051808303816000875af1158015620013e5573d6000803e3d6000fd5b505050506040513d601f19601f820116820180604052508101906200140b919062001ce9565b5080620014188162001c5c565b915050620012a0565b50604080513060208201526001600160a01b038316916353d413c5910160408051601f198184030181529082905280516020909101206001600160e01b031960e084901b1682526004820152600160248201526044016020604051808303816000875af115801562001497573d6000803e3d6000fd5b505050506040513d601f19601f82011682018060405250810190620014bd919062001ce9565b506001600283604051620014d2919062001bba565b9081526040805160209281900383018120805460ff1916941515949094179093556001600160a01b0389811660008181526003855283812080546001600160a01b0319908116948916948517909155838252600486529381208054600181018255908252948120909401805490931681179092559290917f8e0c709111388f5480579514d86663489ab1f206fe6da1a0c4d03ac8c318b3c691a395945050505050565b600080604051806020016200158a9062001739565b601f1982820381018352601f9091011660408181526001600160a01b03878116602084015286168183015280518083038201815260608301909152919250600090620015dd908490849060800162001d0d565b6040516020818303038152906040529050620015fa8782620016b1565b979650505050505050565b6000546001600160a01b03163314620009c25760405162461bcd60e51b815260206004820181905260248201527f4f776e61626c653a2063616c6c6572206973206e6f7420746865206f776e65726044820152606401620003ce565b600080546001600160a01b038381166001600160a01b0319831681178455604051919092169283917f8be0079c531659141344cd1fd0a4f28419497f9722a3daafe3b4186f6b6457e09190a35050565b60008083604051602001620016c7919062001bba565b60405160208183030381529060405280519060200120905060008360200184518381836000f592505050803b620016fd57600080fd5b6040516001600160a01b038216907ff40fcec21964ffb566044d083b4073f29f7f7929110ea19e1b3ebe375d89055e90600090a2949350505050565b6104898062001d4183390190565b80356001600160a01b03811681146200032557600080fd5b6000602082840312156200177257600080fd5b6200177d8262001747565b9392505050565b600080602083850312156200179857600080fd5b823567ffffffffffffffff80821115620017b157600080fd5b818501915085601f830112620017c657600080fd5b813581811115620017d657600080fd5b866020828501011115620017e957600080fd5b60209290920196919550909350505050565b634e487b7160e01b600052604160045260246000fd5b604051601f8201601f1916810167ffffffffffffffff811182821017156200183d576200183d620017fb565b604052919050565b600082601f8301126200185757600080fd5b813567ffffffffffffffff811115620018745762001874620017fb565b62001889601f8201601f191660200162001811565b8181528460208386010111156200189f57600080fd5b816020850160208301376000918101602001919091529392505050565b600080600060608486031215620018d257600080fd5b620018dd8462001747565b9250620018ed6020850162001747565b9150604084013567ffffffffffffffff8111156200190a57600080fd5b620019188682870162001845565b9150509250925092565b6020808252825182820181905260009190848201906040850190845b81811015620019655783516001600160a01b0316835292840192918401916001016200193e565b50909695505050505050565b600080604083850312156200198557600080fd5b620019908362001747565b9150602083013567ffffffffffffffff811115620019ad57600080fd5b620019bb8582860162001845565b9150509250929050565b600080600060608486031215620019db57600080fd5b620019e68462001747565b925060208085013567ffffffffffffffff8082111562001a0557600080fd5b62001a138883890162001845565b9450604087013591508082111562001a2a57600080fd5b818701915087601f83011262001a3f57600080fd5b81358181111562001a545762001a54620017fb565b8060051b915062001a6784830162001811565b818152918301840191848101908a84111562001a8257600080fd5b938501935b8385101562001aa25784358252938501939085019062001a87565b8096505050505050509250925092565b8183823760009101908152919050565b6020808252601f908201527f696e76616c696420617267756d656e74202d207a65726f206164647265737300604082015260600190565b60005b8381101562001b1657818101518382015260200162001afc565b50506000910152565b602081526000825180602084015262001b4081604085016020870162001af9565b601f01601f19169190910160400192915050565b6020808252601f908201527f696e76616c696420617267756d656e74202d20656d70747920737472696e6700604082015260600190565b642a37b5b2b760d91b81526000825162001bad81600585016020870162001af9565b9190910160050192915050565b6000825162001bce81846020870162001af9565b9190910192915050565b60208082526012908201527139b0b63a1030b63932b0b23c903a30b5b2b760711b604082015260600190565b634e487b7160e01b600052603260045260246000fd5b634e487b7160e01b600052601160045260246000fd5b8181038181111562000356576200035662001c1a565b634e487b7160e01b600052603160045260246000fd5b60006001820162001c715762001c7162001c1a565b5060010190565b6213d25160ea1b81526000825162001c9881600385016020870162001af9565b9190910160030192915050565b60208082526024908201527f77616c6c657420616c7265616479206c696e6b656420746f20616e206964656e6040820152637469747960e01b606082015260800190565b60006020828403121562001cfc57600080fd5b815180151581146200177d57600080fd5b6000835162001d2181846020880162001af9565b83519083019062001d3781836020880162001af9565b0194935050505056fe608060405234801561001057600080fd5b5060405161048938038061048983398101604081905261002f91610271565b6001600160a01b03821661008a5760405162461bcd60e51b815260206004820152601f60248201527f696e76616c696420617267756d656e74202d207a65726f20616464726573730060448201526064015b60405180910390fd5b6001600160a01b0381166100e05760405162461bcd60e51b815260206004820152601f60248201527f696e76616c696420617267756d656e74202d207a65726f2061646472657373006044820152606401610081565b817fc5f16f0fcc639fa48a6947836d9850f504798523bf8c9a3a87d5876cf622bcf7556000826001600160a01b031663aaf10f426040518163ffffffff1660e01b8152600401602060405180830381865afa158015610143573d6000803e3d6000fd5b505050506040513d601f19601f8201168201806040525081019061016791906102a4565b6040516001600160a01b03848116602483015291925060009183169060440160408051601f198184030181529181526020820180516001600160e01b031663189acdbd60e31b179052516101bb91906102c6565b600060405180830381855af49150503d80600081146101f6576040519150601f19603f3d011682016040523d82523d6000602084013e6101fb565b606091505b505090508061024c5760405162461bcd60e51b815260206004820152601660248201527f496e697469616c697a6174696f6e206661696c65642e000000000000000000006044820152606401610081565b505050506102f5565b80516001600160a01b038116811461026c57600080fd5b919050565b6000806040838503121561028457600080fd5b61028d83610255565b915061029b60208401610255565b90509250929050565b6000602082840312156102b657600080fd5b6102bf82610255565b9392505050565b6000825160005b818110156102e757602081860181015185830152016102cd565b506000920191825250919050565b610185806103046000396000f3fe60806040526004361061001e5760003560e01c80632307f882146100d4575b60006100487fc5f16f0fcc639fa48a6947836d9850f504798523bf8c9a3a87d5876cf622bcf75490565b6001600160a01b031663aaf10f426040518163ffffffff1660e01b8152600401602060405180830381865afa158015610085573d6000803e3d6000fd5b505050506040513d601f19601f820116820180604052508101906100a9919061011f565b90503660008037600080366000846127105a03f43d806000803e8180156100cf57816000f35b816000fd5b3480156100e057600080fd5b507fc5f16f0fcc639fa48a6947836d9850f504798523bf8c9a3a87d5876cf622bcf7546040516001600160a01b03909116815260200160405180910390f35b60006020828403121561013157600080fd5b81516001600160a01b038116811461014857600080fd5b939250505056fea26469706673582212204b523528c4722addf5a2fb7e48c2f2c4b386e059dc6f43588727aaaf3f4798b364736f6c63430008110033a2646970667358221220235897cce75b3a28354cae6532e823e26b21dfeeaaf7c1f3f90638c68b041e8e64736f6c63430008110033","linkReferences":{}},"methodIdentifiers":{"addTokenFactory(address)":"9ce19365","createIdentity(address,string)":"8e952bfe","createIdentityWithManagementKeys(address,string,bytes32[])":"fe5cd59a","createTokenIdentity(address,address,string)":"3d56ff66","getIdentity(address)":"2fea7b81","getToken(address)":"59770438","getWallets(address)":"422c29a4","isSaltTaken(string)":"3a500451","isTokenFactory(address)":"3e3bc3d7","linkWallet(address)":"b8bb8126","owner()":"8da5cb5b","removeTokenFactory(address)":"937529ef","renounceOwnership()":"715018a6","transferOwnership(address)":"f2fde38b","unlinkWallet(address)":"5027dbe2"},"id":105}