{"abi":[{"type":"function","name":"addCountryRestriction","inputs":[{"name":"_country","type":"uint16","internalType":"uint16"}],"outputs":[],"stateMutability":"nonpayable"},{"type":"function","name":"batchRestrictCountries","inputs":[{"name":"_countries","type":"uint16[]","internalType":"uint16[]"}],"outputs":[],"stateMutability":"nonpayable"},{"type":"function","name":"batchUnrestrictCountries","inputs":[{"name":"_countries","type":"uint16[]","internalType":"uint16[]"}],"outputs":[],"stateMutability":"nonpayable"},{"type":"function","name":"bindCompliance","inputs":[{"name":"_compliance","type":"address","internalType":"address"}],"outputs":[],"stateMutability":"nonpayable"},{"type":"function","name":"canComplianceBind","inputs":[{"name":"","type":"address","internalType":"address"}],"outputs":[{"name":"","type":"bool","internalType":"bool"}],"stateMutability":"view"},{"type":"function","name":"isComplianceBound","inputs":[{"name":"_compliance","type":"address","internalType":"address"}],"outputs":[{"name":"","type":"bool","internalType":"bool"}],"stateMutability":"view"},{"type":"function","name":"isCountryRestricted","inputs":[{"name":"_compliance","type":"address","internalType":"address"},{"name":"_country","type":"uint16","internalType":"uint16"}],"outputs":[{"name":"","type":"bool","internalType":"bool"}],"stateMutability":"view"},{"type":"function","name":"isPlugAndPlay","inputs":[],"outputs":[{"name":"","type":"bool","internalType":"bool"}],"stateMutability":"pure"},{"type":"function","name":"moduleBurnAction","inputs":[{"name":"_from","type":"address","internalType":"address"},{"name":"_value","type":"uint256","internalType":"uint256"}],"outputs":[],"stateMutability":"nonpayable"},{"type":"function","name":"moduleCheck","inputs":[{"name":"","type":"address","internalType":"address"},{"name":"_to","type":"address","internalType":"address"},{"name":"","type":"uint256","internalType":"uint256"},{"name":"_compliance","type":"address","internalType":"address"}],"outputs":[{"name":"","type":"bool","internalType":"bool"}],"stateMutability":"view"},{"type":"function","name":"moduleMintAction","inputs":[{"name":"_to","type":"address","internalType":"address"},{"name":"_value","type":"uint256","internalType":"uint256"}],"outputs":[],"stateMutability":"nonpayable"},{"type":"function","name":"moduleTransferAction","inputs":[{"name":"_from","type":"address","internalType":"address"},{"name":"_to","type":"address","internalType":"address"},{"name":"_value","type":"uint256","internalType":"uint256"}],"outputs":[],"stateMutability":"nonpayable"},{"type":"function","name":"name","inputs":[],"outputs":[{"name":"_name","type":"string","internalType":"string"}],"stateMutability":"pure"},{"type":"function","name":"removeCountryRestriction","inputs":[{"name":"_country","type":"uint16","internalType":"uint16"}],"outputs":[],"stateMutability":"nonpayable"},{"type":"function","name":"unbindCompliance","inputs":[{"name":"_compliance","type":"address","internalType":"address"}],"outputs":[],"stateMutability":"nonpayable"},{"type":"event","name":"AddedRestrictedCountry","inputs":[{"name":"_compliance","type":"address","indexed":true,"internalType":"address"},{"name":"_country","type":"uint16","indexed":false,"internalType":"uint16"}],"anonymous":false},{"type":"event","name":"ComplianceBound","inputs":[{"name":"_compliance","type":"address","indexed":true,"internalType":"address"}],"anonymous":false},{"type":"event","name":"ComplianceUnbound","inputs":[{"name":"_compliance","type":"address","indexed":true,"internalType":"address"}],"anonymous":false},{"type":"event","name":"RemovedRestrictedCountry","inputs":[{"name":"_compliance","type":"address","indexed":true,"internalType":"address"},{"name":"_country","type":"uint16","indexed":false,"internalType":"uint16"}],"anonymous":false}],"bytecode":{"object":"0x608060405234801561001057600080fd5b50610fdd806100206000396000f3fe608060405234801561001057600080fd5b50600436106100f55760003560e01c8063372491a211610097578063bcc2105311610066578063bcc210531461024b578063bdf9a07e1461025f578063e6f5e80714610272578063f104a8c9146101e657600080fd5b8063372491a2146101e65780634a932544146101f95780634cf4d2951461020c5780636aae7b261461023857600080fd5b806306fdde03116100d357806306fdde031461014a578063249c981d146101815780632cb7e1ec1461019457806330236f4a146101a757600080fd5b8063013b7ce4146100fa5780630333ce24146101225780630694a5fb14610137575b600080fd5b61010d610108366004610cb2565b610279565b60405190151581526020015b60405180910390f35b610135610130366004610d15565b6102d1565b005b610135610145366004610d32565b6103d9565b6040805180820182526015815274436f756e74727952657374726963744d6f64756c6560581b602082015290516101199190610d4f565b61013561018f366004610d9d565b6104cf565b6101356101a2366004610e12565b6106d7565b61010d6101b5366004610e53565b6001600160a01b038216600090815260016020908152604080832061ffff8516845290915290205460ff1692915050565b6101356101f4366004610e8c565b610706565b610135610207366004610d32565b610739565b61010d61021a366004610d32565b6001600160a01b031660009081526020819052604090205460ff1690565b610135610246366004610d15565b61086c565b61010d610259366004610d32565b50600190565b61013561026d366004610d9d565b61095b565b600161010d565b6000806102868386610b62565b6001600160a01b038416600090815260016020908152604080832061ffff8516845290915290205490915060ff16156102c35760009150506102c9565b60019150505b949350505050565b3360009081526020819052604090205460ff166103095760405162461bcd60e51b815260040161030090610eb8565b60405180910390fd5b33600090815260016020908152604080832061ffff8516845290915290205460ff16156103785760405162461bcd60e51b815260206004820152601a60248201527f636f756e74727920616c726561647920726573747269637465640000000000006044820152606401610300565b33600081815260016020818152604080842061ffff871680865290835293819020805460ff191690931790925590519182527f5e0addf626d7d7091ab7aebf34682c3203384648734760b24921e31ddcec0bb591015b60405180910390a250565b3360009081526020819052604090205460ff166104085760405162461bcd60e51b815260040161030090610eb8565b6001600160a01b03811661045e5760405162461bcd60e51b815260206004820152601f60248201527f696e76616c696420617267756d656e74202d207a65726f2061646472657373006044820152606401610300565b336001600160a01b038216146104865760405162461bcd60e51b815260040161030090610eef565b6001600160a01b038116600081815260208190526040808220805460ff19169055517f408b49d9be1c914c52a0227e18a077e5a892dddf32a26cfa94a5d9708fad77189190a250565b3360009081526020819052604090205460ff166104fe5760405162461bcd60e51b815260040161030090610eb8565b60c381106105635760405162461bcd60e51b815260206004820152602c60248201527f6d6178696d756d203139352063616e20626520756e726573747269637465642060448201526b0d2dc40dedcca40c4c2e8c6d60a31b6064820152608401610300565b60005b818110156106d2573360009081526001602052604081209084848481811061059057610590610f30565b90506020020160208101906105a59190610d15565b61ffff16815260208101919091526040016000205460ff1615156001146106075760405162461bcd60e51b815260206004820152601660248201527518dbdd5b9d1c9e481b9bdd081c995cdd1c9a58dd195960521b6044820152606401610300565b3360009081526001602052604081208185858581811061062957610629610f30565b905060200201602081019061063e9190610d15565b61ffff1681526020810191909152604001600020805460ff1916911515919091179055337ffb8bb575200aa114265a31c7d8ebeb4e395bd3cd9d0914c4bfa2a511d2011a7a84848481811061069557610695610f30565b90506020020160208101906106aa9190610d15565b60405161ffff909116815260200160405180910390a2806106ca81610f46565b915050610566565b505050565b3360009081526020819052604090205460ff166106d25760405162461bcd60e51b815260040161030090610eb8565b3360009081526020819052604090205460ff166107355760405162461bcd60e51b815260040161030090610eb8565b5050565b6001600160a01b03811661078f5760405162461bcd60e51b815260206004820152601f60248201527f696e76616c696420617267756d656e74202d207a65726f2061646472657373006044820152606401610300565b6001600160a01b03811660009081526020819052604090205460ff16156107f85760405162461bcd60e51b815260206004820152601860248201527f636f6d706c69616e636520616c726561647920626f756e6400000000000000006044820152606401610300565b336001600160a01b038216146108205760405162461bcd60e51b815260040161030090610eef565b6001600160a01b038116600081815260208190526040808220805460ff19166001179055517f1f7b76c58fb697eb53c6c7c1becb96911516a136e24d7ced386b2355358b75a39190a250565b3360009081526020819052604090205460ff1661089b5760405162461bcd60e51b815260040161030090610eb8565b33600090815260016020818152604080842061ffff861685529091529091205460ff161515146109065760405162461bcd60e51b815260206004820152601660248201527518dbdd5b9d1c9e481b9bdd081c995cdd1c9a58dd195960521b6044820152606401610300565b33600081815260016020908152604080832061ffff861680855290835292819020805460ff19169055519182527ffb8bb575200aa114265a31c7d8ebeb4e395bd3cd9d0914c4bfa2a511d2011a7a91016103ce565b3360009081526020819052604090205460ff1661098a5760405162461bcd60e51b815260040161030090610eb8565b60c381106109ed5760405162461bcd60e51b815260206004820152602a60248201527f6d6178696d756d203139352063616e206265207265737472696374656420696e604482015269040dedcca40c4c2e8c6d60b31b6064820152608401610300565b60005b818110156106d25733600090815260016020526040812090848484818110610a1a57610a1a610f30565b9050602002016020810190610a2f9190610d15565b61ffff16815260208101919091526040016000205460ff1615610a945760405162461bcd60e51b815260206004820152601a60248201527f636f756e74727920616c726561647920726573747269637465640000000000006044820152606401610300565b33600090815260016020819052604082209091858585818110610ab957610ab9610f30565b9050602002016020810190610ace9190610d15565b61ffff1681526020810191909152604001600020805460ff1916911515919091179055337f5e0addf626d7d7091ab7aebf34682c3203384648734760b24921e31ddcec0bb5848484818110610b2557610b25610f30565b9050602002016020810190610b3a9190610d15565b60405161ffff909116815260200160405180910390a280610b5a81610f46565b9150506109f0565b6000826001600160a01b0316636a3edf286040518163ffffffff1660e01b8152600401602060405180830381865afa158015610ba2573d6000803e3d6000fd5b505050506040513d601f19601f82011682018060405250810190610bc69190610f6d565b6001600160a01b031663134e18f46040518163ffffffff1660e01b8152600401602060405180830381865afa158015610c03573d6000803e3d6000fd5b505050506040513d601f19601f82011682018060405250810190610c279190610f6d565b604051637e42683b60e01b81526001600160a01b0384811660048301529190911690637e42683b90602401602060405180830381865afa158015610c6f573d6000803e3d6000fd5b505050506040513d601f19601f82011682018060405250810190610c939190610f8a565b9392505050565b6001600160a01b0381168114610caf57600080fd5b50565b60008060008060808587031215610cc857600080fd5b8435610cd381610c9a565b93506020850135610ce381610c9a565b9250604085013591506060850135610cfa81610c9a565b939692955090935050565b61ffff81168114610caf57600080fd5b600060208284031215610d2757600080fd5b8135610c9381610d05565b600060208284031215610d4457600080fd5b8135610c9381610c9a565b600060208083528351808285015260005b81811015610d7c57858101830151858201604001528201610d60565b506000604082860101526040601f19601f8301168501019250505092915050565b60008060208385031215610db057600080fd5b823567ffffffffffffffff80821115610dc857600080fd5b818501915085601f830112610ddc57600080fd5b813581811115610deb57600080fd5b8660208260051b8501011115610e0057600080fd5b60209290920196919550909350505050565b600080600060608486031215610e2757600080fd5b8335610e3281610c9a565b92506020840135610e4281610c9a565b929592945050506040919091013590565b60008060408385031215610e6657600080fd5b8235610e7181610c9a565b91506020830135610e8181610d05565b809150509250929050565b60008060408385031215610e9f57600080fd5b8235610eaa81610c9a565b946020939093013593505050565b6020808252601e908201527f6f6e6c7920626f756e6420636f6d706c69616e63652063616e2063616c6c0000604082015260600190565b60208082526021908201527f6f6e6c7920636f6d706c69616e636520636f6e74726163742063616e2063616c6040820152601b60fa1b606082015260800190565b634e487b7160e01b600052603260045260246000fd5b600060018201610f6657634e487b7160e01b600052601160045260246000fd5b5060010190565b600060208284031215610f7f57600080fd5b8151610c9381610c9a565b600060208284031215610f9c57600080fd5b8151610c9381610d0556fea2646970667358221220edd7795800da224f5f1f44cc662e54150ae069b3448ef4829b92cd94dc9b225364736f6c63430008110033","linkReferences":{}},"methodIdentifiers":{"addCountryRestriction(uint16)":"0333ce24","batchRestrictCountries(uint16[])":"bdf9a07e","batchUnrestrictCountries(uint16[])":"249c981d","bindCompliance(address)":"4a932544","canComplianceBind(address)":"bcc21053","isComplianceBound(address)":"4cf4d295","isCountryRestricted(address,uint16)":"30236f4a","isPlugAndPlay()":"e6f5e807","moduleBurnAction(address,uint256)":"372491a2","moduleCheck(address,address,uint256,address)":"013b7ce4","moduleMintAction(address,uint256)":"f104a8c9","moduleTransferAction(address,address,uint256)":"2cb7e1ec","name()":"06fdde03","removeCountryRestriction(uint16)":"6aae7b26","unbindCompliance(address)":"0694a5fb"},"id":33}